:100000000C945D000C947A000C947A000C947A00A5
:100010000C947A000C947A000C947A000C947A0078
:100020000C947A000C947A000C947A000C947A0068
:100030000C947A000C947A000C947A000C947A0058
:100040000C94CF010C947A000C947A000C947A00F2
:100050000C947A000C947A000C947A000C947A0038
:100060000C947A000C947A00000000080002010051
:100070000003040700000000000000000000000072
:10008000250028002B0000000000240027002A0083
:10009000040404040404040402020202020203032E
:1000A0000303030301020408102040800102040836
:1000B00010200102040810204F0611241FBECFEFAC
:1000C000D8E0DEBFCDBF21E0A0E0B1E001C01D92CD
:1000D000A136B207E1F710E0CDE5D0E004C02197EA
:1000E000FE010E94BE06CC35D107C9F70E94190255
:1000F0000C94C4060C94000090E0FC01EC55FF4FFA
:10010000249180579F4FFC018491882399F090E0BF
:10011000880F991FFC01EA57FF4FA591B491FC018C
:10012000E458FF4F859194918FB7F894EC91E22BAE
:10013000EC938FBF089590E0FC01E859FF4F2491A4
:10014000FC01EC55FF4F3491FC01E057FF4FE49167
:10015000EE23C9F0222339F0233001F1A8F4213035
:1001600019F1223029F1F0E0EE0FFF1FE458FF4FA4
:10017000A591B4918FB7F894EC91611126C0309598
:100180003E233C938FBF08952730A9F02830C9F053
:10019000243049F7809180008F7D03C080918000DA
:1001A0008F7780938000DFCF84B58F7784BDDBCFDE
:1001B00084B58F7DFBCF8091B0008F778093B000A6
:1001C000D2CF8091B0008F7DF9CF3E2BDACF3FB7F1
:1001D000F8948091050190910601A0910701B091DA
:1001E000080126B5A89B05C02F3F19F00196A11D57
:1001F000B11D3FBFBA2FA92F982F8827BC01CD0171
:10020000620F711D811D911D42E0660F771F881FCF
:10021000991F4A95D1F708958F929F92AF92BF92FE
:10022000CF92DF92EF92FF926B017C010E94E70078
:100230004B015C01C114D104E104F104B9F00E9446
:10024000E700681979098A099B09683E73408105AE
:10025000910580F321E0C21AD108E108F10888EE87
:10026000880E83E0981EA11CB11CE4CFFF90EF9094
:10027000DF90CF90BF90AF909F908F900895CF92D6
:10028000DF92EF92FF920F931F93CF93DF9300D0F3
:10029000CDB7DEB769834A83880F991F00915F014C
:1002A00010916001000F111FE9E0F1E09F0129505A
:1002B00031402017310714F41192F8CF2981FC0145
:1002C000E75FFE4F21838A81808360E080915D013A
:1002D0000E949B001016110604F501501109F80147
:1002E000E75FFE4FE080D0905B01C090590188E04D
:1002F000F82E6E2D661F6627661F8C2D0E949B00B0
:10030000EE0C61E08D2D0E949B0060E08D2D0E941F
:100310009B00FA94F110EDCFDDCF61E080915D019B
:100320000F900F90DF91CF911F910F91FF90EF9061
:10033000DF90CF900C949B00EF92FF920F931F934E
:10034000CF937C018C0183E0000F111F8A95E1F7A8
:10035000075E1E4FC1E0F80111928F0140E06C2F43
:10036000C7010E943F01CF5FC930A9F7CF911F910C
:100370000F91FF90EF900895462F20915F013091EB
:1003800060011216130654F4FC01E75FFE4F608B08
:1003900061E0680F90E080E00C943F0108951F92A7
:1003A0000F920FB60F9211242F933F938F939F9329
:1003B000AF93BF938091010190910201A09103013D
:1003C000B09104013091000123E0230F2D3758F53F
:1003D0000196A11DB11D209300018093010190930E
:1003E0000201A0930301B093040180910501909153
:1003F0000601A0910701B09108010196A11DB11D50
:100400008093050190930601A0930701B093080122
:10041000BF91AF919F918F913F912F910F900FBE00
:100420000F901F90189526E8230F0296A11DB11D6D
:10043000D2CF789484B5826084BD84B5816084BD58
:1004400085B5826085BD85B5816085BD80916E0072
:10045000816080936E0010928100809181008260A3
:1004600080938100809181008160809381008091E0
:1004700080008160809380008091B10084608093CF
:10048000B1008091B00081608093B00080917A00CB
:10049000846080937A0080917A00826080937A00F1
:1004A00080917A00816080937A0080917A008068E0
:1004B00080937A001092C10080915F019091600159
:1004C0001816190634F441E06CE090E080E00E94D8
:1004D0003F0180915F01909160011816190634F474
:1004E00048E06AE090E080E00E943F0180915F0177
:1004F000909160011816190624F490E080E00E94A3
:100500009C01C0E0D0E060E090E080E00E94BC018F
:1005100060E081E090E00E94BC0160E082E090E059
:100520000E94BC0160E083E090E00E94BC0160E0BA
:1005300084E090E00E94BC0160E085E090E00E94D1
:10054000BC0160E086E090E00E94BC0160E087E0D2
:1005500090E00E94BC0164E670E080E090E00E94C0
:100560000C0160E090E080E00E94BC0160E081E06E
:1005700090E00E94BC0160E082E090E00E94BC013B
:1005800068E183E090E00E94BC0168E184E090E0D3
:100590000E94BC0160E085E090E00E94BC0160E048
:1005A00086E090E00E94BC0160E087E090E00E945D
:1005B000BC0164E670E080E090E00E940C0160E025
:1005C00090E080E00E94BC0160E081E090E00E9449
:1005D000BC0160E082E090E00E94BC0168E183E041
:1005E00090E00E94BC0168E184E090E00E94BC01C0
:1005F00060E085E090E00E94BC0160E086E090E071
:100600000E94BC0160E087E090E00E94BC0164E6CB
:1006100070E080E090E00E940C0160E090E080E0FB
:100620000E94BC0160E081E090E00E94BC0168E1B2
:1006300082E090E00E94BC0168E183E090E00E94CB
:10064000BC0168E184E090E00E94BC0168E185E0C3
:1006500090E00E94BC0160E086E090E00E94BC0156
:1006600060E087E090E00E94BC0164E670E080E01A
:1006700090E00E940C0160E090E080E00E94BC01EC
:1006800068E181E090E00E94BC0168E182E090E0D6
:100690000E94BC0168E183E090E00E94BC0168E137
:1006A00084E090E00E94BC0168E185E090E00E9457
:1006B000BC0168E186E090E00E94BC0160E087E058
:1006C00090E00E94BC0164E670E080E090E00E944F
:1006D0000C0168E190E080E00E94BC0168E181E0EB
:1006E00090E00E94BC0168E182E090E00E94BC01C1
:1006F00068E183E090E00E94BC0168E184E090E062
:100700000E94BC0168E185E090E00E94BC0168E1C4
:1007100086E090E00E94BC0168E187E090E00E94E2
:10072000BC0164E670E080E090E00E940C016CE3A4
:1007300090E080E00E94BC0164E281E090E00E94D1
:10074000BC0164E282E090E00E94BC0164E283E0CC
:1007500090E00E94BC0164E284E090E00E94BC0151
:1007600064E285E090E00E94BC0164E286E090E0F3
:100770000E94BC016CE387E090E00E94BC0164E64B
:1007800070E080E090E00E940C016EE790E080E075
:100790000E94BC0162E481E090E00E94BC0162E43E
:1007A00082E090E00E94BC0162E483E090E00E945D
:1007B000BC0162E484E090E00E94BC0162E485E058
:1007C00090E00E94BC0162E486E090E00E94BC01DF
:1007D0006EE787E090E00E94BC0164E670E080E094
:1007E00090E00E940C016FEF90E080E00E94BC015D
:1007F00061E881E090E00E94BC0161E882E090E065
:100800000E94BC0161E883E090E00E94BC0161E8C5
:1008100084E090E00E94BC0161E885E090E00E94E5
:10082000BC0161E886E090E00E94BC016FEF87E0C8
:1008300090E00E94BC0164E670E080E090E00E94DD
:100840000C0160E090E080E00E94BC016FEF81E06D
:1008500090E00E94BC0161E882E090E00E94BC014F
:1008600061E883E090E00E94BC0161E884E090E0F0
:100870000E94BC0161E885E090E00E94BC016FEF3E
:1008800086E090E00E94BC0160E087E090E00E947A
:10089000BC0164E670E080E090E00E940C0160E042
:1008A00090E080E00E94BC0160E081E090E00E9466
:1008B000BC016FEF82E090E00E94BC0161E883E040
:1008C00090E00E94BC0161E884E090E00E94BC01DD
:1008D0006FEF85E090E00E94BC0160E086E090E070
:1008E0000E94BC0160E087E090E00E94BC0164E6E9
:1008F00070E080E090E00E940C0160E090E080E019
:100900000E94BC0160E081E090E00E94BC0160E0D8
:1009100082E090E00E94BC016FEF83E090E00E94D3
:10092000BC016FEF84E090E00E94BC0160E085E0D4
:1009300090E00E94BC0160E086E090E00E94BC0173
:1009400060E087E090E00E94BC0164E670E080E037
:1009500090E00E940C0160E090E080E00E94BC0109
:1009600060E081E090E00E94BC0160E082E090E005
:100970000E94BC016EE783E090E00E94BC016EE73C
:1009800084E090E00E94BC0160E085E090E00E947D
:10099000BC0160E086E090E00E94BC0160E087E07E
:1009A00090E00E94BC0164E670E080E090E00E946C
:1009B0000C0160E090E080E00E94BC0160E081E01A
:1009C00090E00E94BC0160E082E090E00E94BC01E7
:1009D0006CE383E090E00E94BC016CE384E090E073
:1009E0000E94BC0160E085E090E00E94BC0160E0F4
:1009F00086E090E00E94BC0160E087E090E00E9409
:100A0000BC0164E670E080E090E00E940C0160E0D0
:100A100090E080E00E94BC0160E081E090E00E94F4
:100A2000BC0160E082E090E00E94BC0168E183E0EC
:100A300090E00E94BC0168E184E090E00E94BC016B
:100A400060E085E090E00E94BC0160E086E090E01C
:100A50000E94BC0160E087E090E00E94BC0164E677
:100A600070E080E090E00E940C0160E090E080E0A7
:100A70000E94BC0160E081E090E00E94BC016CE358
:100A800082E090E00E94BC0164E283E090E00E947A
:100A9000BC0164E284E090E00E94BC016CE385E06C
:100AA00090E00E94BC0160E086E090E00E94BC0102
:100AB00060E087E090E00E94BC0164E670E080E0C6
:100AC00090E00E940C0160E090E080E00E94BC0198
:100AD0006EE781E090E00E94BC0162E482E090E079
:100AE0000E94BC0162E483E090E00E94BC0162E4E9
:100AF00084E090E00E94BC0162E485E090E00E9406
:100B0000BC016EE786E090E00E94BC0160E087E0F7
:100B100090E00E94BC0164E670E080E090E00E94FA
:100B20000C016FEF90E080E00E94BC0161E881E081
:100B300090E00E94BC0161E882E090E00E94BC016C
:100B400061E883E090E00E94BC0161E884E090E00D
:100B50000E94BC0161E885E090E00E94BC0161E870
:100B600086E090E00E94BC016FEF87E090E00E9479
:100B7000BC0164E670E080E090E00E940C0160E05F
:100B800090E080E00E94BC016EE781E090E00E946E
:100B9000BC0162E482E090E00E94BC0162E483E078
:100BA00090E00E94BC0162E484E090E00E94BC01FD
:100BB00062E485E090E00E94BC016EE786E090E090
:100BC0000E94BC0160E087E090E00E94BC0164E606
:100BD00070E080E090E00E940C0160E090E080E036
:100BE0000E94BC0160E081E090E00E94BC016CE3E7
:100BF00082E090E00E94BC0164E283E090E00E9409
:100C0000BC0164E284E090E00E94BC016CE385E0FA
:100C100090E00E94BC0160E086E090E00E94BC0190
:100C200060E087E090E00E94BC0164E670E080E054
:100C300090E00E940C0160E090E080E00E94BC0126
:100C400060E081E090E00E94BC0160E082E090E022
:100C50000E94BC0168E183E090E00E94BC0168E171
:100C600084E090E00E94BC0160E085E090E00E949A
:100C7000BC0160E086E090E00E94BC0160E087E09B
:100C800090E00E94BC0164E670E080E090E00E9489
:100C90000C01209709F437CC0E94000034CCCF938C
:100CA000DF93CCE0D0E0D0935A01C09359018BE0A0
:100CB00090E090935C0180935B018AE090E09093D8
:100CC0005E0180935D0181E090E0909360018093EC
:100CD0005F018CE00E947C0080915B010E947C009F
:100CE00080915D010E947C0061E080915D010E9425
:100CF0009B00D0935A01C0935901E9E1F1E01192B0
:100D000081E0E935F807D9F7D0E0C0E080915F01D4
:100D100090916001C817D90774F540E06FE0CE01EB
:100D20000E943F0180915F0190916001C817D9072F
:100D30002CF447E06BE0CE010E943F0140E069E007
:100D4000CE010E943F0180915F0190916001C81720
:100D5000D9071CF4CE010E949C0180915F01909103
:100D60006001C817D9072CF440E06CE0CE010E9466
:100D70003F012196CBCFDF91CF910895EE0FFF1F5A
:0C0D80000590F491E02D0994F894FFCF49
:00000001FF
