:100000000C9435000C945D000C945D000C945D0024
:100010000C945D000C945D000C945D000C945D00EC
:100020000C945D000C945D000C945D000C945D00DC
:100030000C945D000C945D000C945D000C945D00CC
:100040000C945B020C945D000C9429020C94030246
:100050000C945D000C945D000C945D000C945D00AC
:100060000C945D000C945D00970411241FBECFEF2B
:10007000D8E0DEBFCDBF11E0A0E0B1E0E6EFFBE0ED
:1000800002C005900D92AE31B107D9F723E0AEE181
:10009000B1E001C01D92A435B207E1F710E0C5E35D
:1000A000D0E004C02197FE010E94F305C433D107BC
:1000B000C9F70E94A5020C94F9050C940000AF92B8
:1000C000BF92CF92DF92EF92FF920F931F93CF9345
:1000D000DF936C017B018B01040F151FEB015E01A7
:1000E000AE18BF08C017D10759F06991D601ED913C
:1000F000FC910190F081E02DC6010995892B79F7DB
:10010000C501DF91CF911F910F91FF90EF90DF908C
:10011000CF90BF90AF900895FC01538D448D252F53
:1001200030E0842F90E0821B930B541710F0CF9691
:10013000089501970895FC01918D828D981761F0C3
:10014000A28DAE0FBF2FB11D5D968C91928D9F5FDA
:100150009F73928F90E008958FEF9FEF0895FC01B9
:10016000918D828D981731F0828DE80FF11D858D6C
:1001700090E008958FEF9FEF0895FC01918D228DFF
:10018000892F90E0805C9F4F821B91098F73992784
:10019000089587EB92E00E94BD0021E0892B09F4CD
:1001A00020E0822F089580E090E0892B29F00E94C2
:1001B000C90081110C9400000895FC01A48DA80FC2
:1001C000B92FB11DA35ABF4F2C91848D90E0019699
:1001D0008F739927848FA689B7892C93A089B189B9
:1001E0008C91837080648C93938D848D981306C05A
:1001F0000288F389E02D80818F7D80830895EF92BE
:10020000FF920F931F93CF93DF93EC0181E0888FD0
:100210009B8D8C8D98131AC0E889F989808185FFA0
:1002200015C09FB7F894EE89FF896083E889F98942
:1002300080818370806480839FBF81E090E0DF9144
:10024000CF911F910F91FF90EF900895F62E0B8D97
:1002500010E00F5F1F4F0F731127E02E8C8D8E1152
:100260000CC00FB607FCFACFE889F989808185FFB9
:10027000F5CFCE010E94DD00F1CFEB8DEC0FFD2F0D
:10028000F11DE35AFF4FF0829FB7F8940B8FEA8974
:10029000FB8980818062CFCFCF93DF93EC01888D83
:1002A0008823B9F0AA89BB89E889F9898C9185FDF1
:1002B00003C0808186FD0DC00FB607FCF7CF8C917F
:1002C00085FFF2CF808185FFEDCFCE010E94DD005A
:1002D000E9CFDF91CF9108953FB7F8948091230142
:1002E00090912401A0912501B091260126B5A89BEB
:1002F00005C02F3F19F00196A11DB11D3FBFBA2FB8
:10030000A92F982F8827BC01CD01620F711D811D77
:10031000911D42E0660F771F881F991F4A95D1F7FC
:100320000895FC0101900020E9F73197AF01481BC7
:10033000590BBC0187EB92E00C945F008F929F9267
:10034000AF92BF920F931F93CF93DF93CDB7DEB7DA
:10035000A1970FB6F894DEBF0FBECDBF19A24230F1
:1003600008F44AE08E010F5D1F4F842E912CB12CB2
:10037000A12CA50194010E949A05E62FB901CA019A
:10038000EA30F4F4E05DD801EE938D01232B242BA9
:10039000252B79F790E080E0109719F0CD010E94AD
:1003A0009101A1960FB6F894DEBF0FBECDBFDF91CD
:1003B000CF911F910F91BF90AF909F908F90089514
:1003C000E95CE1CFCF92DF92EF92FF92CF93DF9380
:1003D0006B017C016DE287EB92E00E94FF00EC0173
:1003E00066277727CB016C197D098E099F094AE0A2
:1003F0000E949E018C0F9D1FDF91CF91FF90EF9087
:10040000DF90CF9008951F920F920FB60F92112494
:100410002F933F934F935F936F937F938F939F930C
:10042000AF93BF93EF93FF9387EB92E00E94DD00C1
:10043000FF91EF91BF91AF919F918F917F916F91BC
:100440005F914F913F912F910F900FBE0F901F9092
:1004500018951F920F920FB60F9211242F938F931E
:100460009F93EF93FF93E091C702F091C8028081C0
:10047000E091CD02F091CE0282FD1BC0908180916F
:10048000D0028F5F8F732091D102821741F0E091EB
:10049000D002F0E0E954FD4F958F8093D002FF9198
:1004A000EF919F918F912F910F900FBE0F901F9002
:1004B00018958081F4CF1F920F920FB60F921124DE
:1004C0002F933F938F939F93AF93BF9380911F017F
:1004D00090912001A0912101B091220130911E0143
:1004E00023E0230F2D3758F50196A11DB11D209350
:1004F0001E0180931F0190932001A0932101B093CE
:1005000022018091230190912401A0912501B091B5
:1005100026010196A11DB11D809323019093240112
:10052000A0932501B0932601BF91AF919F918F9128
:100530003F912F910F900FBE0F901F90189526E8B6
:10054000230F0296A11DB11DD2CFCF93DF9300D010
:1005500000D0CDB7DEB7789484B5826084BD84B511
:10056000816084BD85B5826085BD85B5816085BDAE
:1005700080916E00816080936E0010928100809166
:1005800081008260809381008091810081608093EE
:100590008100809180008160809380008091B10013
:1005A00084608093B1008091B00081608093B0003E
:1005B00080917A00846080937A0080917A008260D2
:1005C00080937A0080917A00816080937A00809194
:1005D0007A00806880937A001092C10080E4809352
:1005E0007C0080917A00806480937A0080917A0008
:1005F00086FDFCCF8091780060917900762F682F7E
:10060000072E000C880B990B61157105810591056A
:1006100011F00E945F05E091C702F091C80282E0EC
:100620008083E091C302F091C4021082E091C50280
:10063000F091C60287E680831092CF02E091CB0250
:10064000F091CC0286E08083E091C902F091CA0269
:10065000808180618083E091C902F091CA0280812B
:1006600088608083E091C902F091CA02808180682D
:100670008083E091C902F091CA0280818F7D8083DE
:10068000A7EBCA2EA2E0DA2E2FEE31E03C832B83BB
:10069000B2E08B2E912CA12CB12C10E000E00E9436
:1006A00010057801EE0CFF1CEB81FC81EE0EFF1EA5
:1006B000A50194010E946805F701718360830F5FB3
:1006C0001F4F0A30110559F72B813C812C5E3F4F9B
:1006D0003C832B83C216D30601F7C12CD12C7601A3
:1006E0004AE0C701B6010E949E0186E191E00E94A6
:1006F00091013FEFC31AD30AE30AF30A6AE0C61670
:10070000D104E104F10461F78CE191E00E949101D0
:10071000EFEEEE2EE1E0FE2E812C912C540110E044
:1007200000E0F801EE0FFF1FEE0DFF1D80819181AB
:100730006AE2019709F06DE287EB92E00E94FF0008
:1007400041E050E069E171E087EB92E00E945F00D8
:100750000930110549F488E191E00E9491014AE0D5
:10076000C501B4010E949E010F5F1F4F0A301105A1
:10077000C1F68CE191E00E9491017FEF871A970A00
:10078000A70AB70A84E1E80EF11C9AE089169104E1
:10079000A104B10421F68BE191E00E9491010E9435
:1007A0006C014B015C0168EEC62E63E0D62EE12C95
:1007B000F12C0E946C01681979098A099B09683E2D
:1007C000734081059105A8F3E1E0CE1AD108E10854
:1007D000F108F8EE8F0EF3E09F1EA11CB11CC114AE
:1007E000D104E104F10429F757E2452E51E0552EDA
:1007F000A2012FEE31E090E080E0FA01E80FF91F4E
:10080000D901A80FB91F6D917C9171836083029605
:100810008431910591F72C5E3F4F4C5E5F4F6B81A9
:100820007C812617370739F73FEEE32E31E0F32EB0
:1008300049E0242E312C0CE010E04AE0F0E0E0E04A
:100840009CE0692E712C29E0C22ED12C510130E0A0
:1008500020E0C5016AE070E00E94CB054601489F98
:10086000B001499F700D11247A836983C4016AE045
:1008700070E00E94CB05A981BA81A80FB91FAA0F09
:10088000BB1FA95DBE4F8D919C91280F391F7FEF33
:10089000871A970A8614970449F78FEFA81AB80A9F
:1008A000A016B106B1F6D201AE0FBF1F8D919C917B
:1008B000281B390B2330310579F5D701AE0FBF1F47
:1008C00021E030E02D933C933FEFC31AD30A6FEF42
:1008D000661A760A329673E1C716D10409F0B6CFCC
:1008E00084E1E80EF11C94E1490E511C0F5F1F4F8B
:1008F000EFEF2E1A3E0A0631110509F09FCF20E0D6
:1009000030E0232B09F4E9CE0E94C900882309F4C2
:10091000E4CE0E940000E1CE2250310922303105A0
:1009200098F2D701AE0FBF1F1D921C92CDCFE7EBFF
:10093000F2E01382128288EE93E0A0E0B0E08483BC
:100940009583A683B78388E091E09183808385ECCB
:1009500090E09587848784EC90E09787868780EC89
:1009600090E0918B808B81EC90E0938B828B82EC7A
:1009700090E0958B848B86EC90E0978B868B118E24
:10098000128E138E148E08958F929F92AF92BF9203
:10099000CF92DF92EF92FF92CF93DF93EC016881C9
:1009A00079818A819B81611571058105910521F409
:1009B00064E279ED8BE597E02DE133EF41E050E023
:1009C0000E94680549015A019B01AC01A7EAB1E404
:1009D0000E9487056B017C01ACEEB4EFA501940188
:1009E0000E949505C60ED71EE81EF91EF7FE06C02A
:1009F00081E0C81AD108E10880E8F80AC882D982E3
:100A0000EA82FB82C701B6019F77DF91CF91FF9009
:100A1000EF90DF90CF90BF90AF909F908F90089510
:100A20008F929F92AF92BF92CF92DF92EF92FF92FE
:100A30006091000170910101809102019091030188
:100A4000611571058105910521F464E279ED8BE56D
:100A500097E02DE133EF41E050E00E946805490145
:100A60005A019B01AC01A7EAB1E40E9487056B0122
:100A70007C01ACEEB4EFA50194010E949505C60E71
:100A8000D71EE81EF91EF7FE06C081E0C81AD1087D
:100A9000E10880E8F80AC0920001D0920101E092DA
:100AA0000201F0920301C701B6019F77FF90EF901A
:100AB000DF90CF90BF90AF909F908F9008956093FC
:100AC0000001709301018093020190930301089546
:100AD000052E97FB1EF400940E947F0557FD07D05A
:100AE0000E949A0507FC03D04EF40C947F055095A4
:100AF0004095309521953F4F4F4F5F4F089590950A
:100B00008095709561957F4F8F4F9F4F08950E94FC
:100B1000BC05A59F900DB49F900DA49F800D911DC5
:100B200011240895B7FF0C9487050E948705821B46
:100B3000930B0895A1E21A2EAA1BBB1BFD010DC049
:100B4000AA1FBB1FEE1FFF1FA217B307E407F5077D
:100B500020F0A21BB30BE40BF50B661F771F881F59
:100B6000991F1A9469F760957095809590959B01EF
:100B7000AC01BD01CF010895A29FB001B39FC00198
:100B8000A39F700D811D1124911DB29F700D811DB9
:100B90001124911D089597FB072E16F4009407D099
:100BA00077FD09D00E94DF0507FC05D03EF4909543
:100BB00081959F4F0895709561957F4F0895AA1B69
:100BC000BB1B51E107C0AA1FBB1FA617B70710F038
:100BD000A61BB70B881F991F5A95A9F7809590956A
:100BE000BC01CD010895EE0FFF1F0590F491E02D9B
:060BF0000994F894FFCF08
:100BF6000100000000000000FF005F008C004C01B7
:0E0C0600BD009B00AF005F007C20000A0A00CA
:00000001FF
